{
  "_format": "hh-sol-artifact-1",
  "contractName": "Vault",
  "sourceName": "contracts/Vault.sol",
  "abi": [
    {
      "inputs": [],
      "stateMutability": "nonpayable",
      "type": "constructor"
    },
    {
      "anonymous": false,
      "inputs": [
        {
          "indexed": true,
          "internalType": "address",
          "name": "owner",
          "type": "address"
        },
        {
          "indexed": true,
          "internalType": "address",
          "name": "spender",
          "type": "address"
        },
        {
          "indexed": false,
          "internalType": "uint256",
          "name": "value",
          "type": "uint256"
        }
      ],
      "name": "Approval",
      "type": "event"
    },
    {
      "anonymous": false,
      "inputs": [
        {
          "indexed": false,
          "internalType": "string",
          "name": "_log",
          "type": "string"
        },
        {
          "indexed": true,
          "internalType": "address",
          "name": "_from",
          "type": "address"
        },
        {
          "indexed": false,
          "internalType": "uint256",
          "name": "_amount",
          "type": "uint256"
        }
      ],
      "name": "Deposit",
      "type": "event"
    },
    {
      "anonymous": false,
      "inputs": [
        {
          "indexed": true,
          "internalType": "address",
          "name": "previousOwner",
          "type": "address"
        },
        {
          "indexed": true,
          "internalType": "address",
          "name": "newOwner",
          "type": "address"
        }
      ],
      "name": "OwnershipTransferred",
      "type": "event"
    },
    {
      "anonymous": false,
      "inputs": [
        {
          "indexed": true,
          "internalType": "address",
          "name": "from",
          "type": "address"
        },
        {
          "indexed": true,
          "internalType": "address",
          "name": "to",
          "type": "address"
        },
        {
          "indexed": false,
          "internalType": "uint256",
          "name": "value",
          "type": "uint256"
        }
      ],
      "name": "Transfer",
      "type": "event"
    },
    {
      "anonymous": false,
      "inputs": [
        {
          "indexed": false,
          "internalType": "string",
          "name": "_log",
          "type": "string"
        },
        {
          "indexed": true,
          "internalType": "address",
          "name": "_to",
          "type": "address"
        },
        {
          "indexed": false,
          "internalType": "uint256",
          "name": "_amount",
          "type": "uint256"
        }
      ],
      "name": "Withdraw",
      "type": "event"
    },
    {
      "inputs": [
        {
          "internalType": "address",
          "name": "owner",
          "type": "address"
        },
        {
          "internalType": "address",
          "name": "spender",
          "type": "address"
        }
      ],
      "name": "allowance",
      "outputs": [
        {
          "internalType": "uint256",
          "name": "",
          "type": "uint256"
        }
      ],
      "stateMutability": "view",
      "type": "function"
    },
    {
      "inputs": [
        {
          "internalType": "address",
          "name": "spender",
          "type": "address"
        },
        {
          "internalType": "uint256",
          "name": "amount",
          "type": "uint256"
        }
      ],
      "name": "approve",
      "outputs": [
        {
          "internalType": "bool",
          "name": "",
          "type": "bool"
        }
      ],
      "stateMutability": "nonpayable",
      "type": "function"
    },
    {
      "inputs": [
        {
          "internalType": "address",
          "name": "account",
          "type": "address"
        }
      ],
      "name": "balanceOf",
      "outputs": [
        {
          "internalType": "uint256",
          "name": "",
          "type": "uint256"
        }
      ],
      "stateMutability": "view",
      "type": "function"
    },
    {
      "inputs": [],
      "name": "decimals",
      "outputs": [
        {
          "internalType": "uint8",
          "name": "",
          "type": "uint8"
        }
      ],
      "stateMutability": "view",
      "type": "function"
    },
    {
      "inputs": [
        {
          "internalType": "address",
          "name": "spender",
          "type": "address"
        },
        {
          "internalType": "uint256",
          "name": "subtractedValue",
          "type": "uint256"
        }
      ],
      "name": "decreaseAllowance",
      "outputs": [
        {
          "internalType": "bool",
          "name": "",
          "type": "bool"
        }
      ],
      "stateMutability": "nonpayable",
      "type": "function"
    },
    {
      "inputs": [
        {
          "internalType": "address",
          "name": "_from",
          "type": "address"
        },
        {
          "internalType": "uint256",
          "name": "_amount",
          "type": "uint256"
        }
      ],
      "name": "deposit",
      "outputs": [],
      "stateMutability": "nonpayable",
      "type": "function"
    },
    {
      "inputs": [
        {
          "internalType": "address",
          "name": "_from",
          "type": "address"
        }
      ],
      "name": "getAccount",
      "outputs": [
        {
          "internalType": "uint256",
          "name": "",
          "type": "uint256"
        }
      ],
      "stateMutability": "view",
      "type": "function"
    },
    {
      "inputs": [
        {
          "internalType": "address",
          "name": "spender",
          "type": "address"
        },
        {
          "internalType": "uint256",
          "name": "addedValue",
          "type": "uint256"
        }
      ],
      "name": "increaseAllowance",
      "outputs": [
        {
          "internalType": "bool",
          "name": "",
          "type": "bool"
        }
      ],
      "stateMutability": "nonpayable",
      "type": "function"
    },
    {
      "inputs": [
        {
          "internalType": "address",
          "name": "to",
          "type": "address"
        },
        {
          "internalType": "uint256",
          "name": "amount",
          "type": "uint256"
        }
      ],
      "name": "mint",
      "outputs": [],
      "stateMutability": "nonpayable",
      "type": "function"
    },
    {
      "inputs": [],
      "name": "name",
      "outputs": [
        {
          "internalType": "string",
          "name": "",
          "type": "string"
        }
      ],
      "stateMutability": "view",
      "type": "function"
    },
    {
      "inputs": [],
      "name": "owner",
      "outputs": [
        {
          "internalType": "address",
          "name": "",
          "type": "address"
        }
      ],
      "stateMutability": "view",
      "type": "function"
    },
    {
      "inputs": [],
      "name": "renounceOwnership",
      "outputs": [],
      "stateMutability": "nonpayable",
      "type": "function"
    },
    {
      "inputs": [],
      "name": "symbol",
      "outputs": [
        {
          "internalType": "string",
          "name": "",
          "type": "string"
        }
      ],
      "stateMutability": "view",
      "type": "function"
    },
    {
      "inputs": [],
      "name": "totalSupply",
      "outputs": [
        {
          "internalType": "uint256",
          "name": "",
          "type": "uint256"
        }
      ],
      "stateMutability": "view",
      "type": "function"
    },
    {
      "inputs": [
        {
          "internalType": "address",
          "name": "to",
          "type": "address"
        },
        {
          "internalType": "uint256",
          "name": "amount",
          "type": "uint256"
        }
      ],
      "name": "transfer",
      "outputs": [
        {
          "internalType": "bool",
          "name": "",
          "type": "bool"
        }
      ],
      "stateMutability": "nonpayable",
      "type": "function"
    },
    {
      "inputs": [
        {
          "internalType": "address",
          "name": "from",
          "type": "address"
        },
        {
          "internalType": "address",
          "name": "to",
          "type": "address"
        },
        {
          "internalType": "uint256",
          "name": "amount",
          "type": "uint256"
        }
      ],
      "name": "transferFrom",
      "outputs": [
        {
          "internalType": "bool",
          "name": "",
          "type": "bool"
        }
      ],
      "stateMutability": "nonpayable",
      "type": "function"
    },
    {
      "inputs": [
        {
          "internalType": "address",
          "name": "newOwner",
          "type": "address"
        }
      ],
      "name": "transferOwnership",
      "outputs": [],
      "stateMutability": "nonpayable",
      "type": "function"
    },
    {
      "inputs": [
        {
          "internalType": "address",
          "name": "_to",
          "type": "address"
        },
        {
          "internalType": "uint256",
          "name": "_amount",
          "type": "uint256"
        }
      ],
      "name": "withdraw",
      "outputs": [],
      "stateMutability": "nonpayable",
      "type": "function"
    }
  ],
  "bytecode": "0x60806040523480156200001157600080fd5b506040518060400160405280600781526020017f44657373657274000000000000000000000000000000000000000000000000008152506040518060400160405280600381526020017f4445540000000000000000000000000000000000000000000000000000000000815250816003908051906020019062000096929190620001a6565b508060049080519060200190620000af929190620001a6565b505050620000d2620000c6620000d860201b60201c565b620000e060201b60201c565b620002bb565b600033905090565b6000600560009054906101000a900473ffffffffffffffffffffffffffffffffffffffff16905081600560006101000a81548173ffffffffffffffffffffffffffffffffffffffff021916908373ffffffffffffffffffffffffffffffffffffffff1602179055508173ffffffffffffffffffffffffffffffffffffffff168173ffffffffffffffffffffffffffffffffffffffff167f8be0079c531659141344cd1fd0a4f28419497f9722a3daafe3b4186f6b6457e060405160405180910390a35050565b828054620001b49062000256565b90600052602060002090601f016020900481019282620001d8576000855562000224565b82601f10620001f357805160ff191683800117855562000224565b8280016001018555821562000224579182015b828111156200022357825182559160200191906001019062000206565b5b50905062000233919062000237565b5090565b5b808211156200025257600081600090555060010162000238565b5090565b600060028204905060018216806200026f57607f821691505b602082108114156200028657620002856200028c565b5b50919050565b7f4e487b7100000000000000000000000000000000000000000000000000000000600052602260045260246000fd5b611e6680620002cb6000396000f3fe608060405234801561001057600080fd5b50600436106101165760003560e01c8063715018a6116100a2578063a9059cbb11610071578063a9059cbb146102e3578063dd62ed3e14610313578063f2fde38b14610343578063f3fef3a31461035f578063fbcbc0f11461037b57610116565b8063715018a61461026d5780638da5cb5b1461027757806395d89b4114610295578063a457c2d7146102b357610116565b8063313ce567116100e9578063313ce567146101b757806339509351146101d557806340c10f191461020557806347e7ef241461022157806370a082311461023d57610116565b806306fdde031461011b578063095ea7b31461013957806318160ddd1461016957806323b872dd14610187575b600080fd5b6101236103ab565b6040516101309190611700565b60405180910390f35b610153600480360381019061014e9190611452565b61043d565b60405161016091906116e5565b60405180910390f35b610171610460565b60405161017e91906118de565b60405180910390f35b6101a1600480360381019061019c9190611403565b61046a565b6040516101ae91906116e5565b60405180910390f35b6101bf610499565b6040516101cc91906118f9565b60405180910390f35b6101ef60048036038101906101ea9190611452565b6104a2565b6040516101fc91906116e5565b60405180910390f35b61021f600480360381019061021a9190611452565b61054c565b005b61023b60048036038101906102369190611452565b6105d6565b005b6102576004803603810190610252919061139e565b6106f8565b60405161026491906118de565b60405180910390f35b610275610740565b005b61027f6107c8565b60405161028c91906116ca565b60405180910390f35b61029d6107f2565b6040516102aa9190611700565b60405180910390f35b6102cd60048036038101906102c89190611452565b610884565b6040516102da91906116e5565b60405180910390f35b6102fd60048036038101906102f89190611452565b61096e565b60405161030a91906116e5565b60405180910390f35b61032d600480360381019061032891906113c7565b610991565b60405161033a91906118de565b60405180910390f35b61035d6004803603810190610358919061139e565b610a18565b005b61037960048036038101906103749190611452565b610b10565b005b6103956004803603810190610390919061139e565b610c31565b6040516103a291906118de565b60405180910390f35b6060600380546103ba90611a42565b80601f01602080910402602001604051908101604052809291908181526020018280546103e690611a42565b80156104335780601f1061040857610100808354040283529160200191610433565b820191906000526020600020905b81548152906001019060200180831161041657829003601f168201915b5050505050905090565b600080610448610c7a565b9050610455818585610c82565b600191505092915050565b6000600254905090565b600080610475610c7a565b9050610482858285610e4d565b61048d858585610ed9565b60019150509392505050565b60006012905090565b6000806104ad610c7a565b9050610541818585600160008673ffffffffffffffffffffffffffffffffffffffff1673ffffffffffffffffffffffffffffffffffffffff16815260200190815260200160002060008973ffffffffffffffffffffffffffffffffffffffff1673ffffffffffffffffffffffffffffffffffffffff1681526020019081526020016000205461053c9190611930565b610c82565b600191505092915050565b610554610c7a565b73ffffffffffffffffffffffffffffffffffffffff166105726107c8565b73ffffffffffffffffffffffffffffffffffffffff16146105c8576040517f08c379a00000000000000000000000000000000000000000000000000000000081526004016105bf9061183e565b60405180910390fd5b6105d28282611144565b5050565b8173ffffffffffffffffffffffffffffffffffffffff163373ffffffffffffffffffffffffffffffffffffffff1614610644576040517f08c379a000000000000000000000000000000000000000000000000000000000815260040161063b9061181e565b60405180910390fd5b61064f82308361046a565b5080600660008473ffffffffffffffffffffffffffffffffffffffff1673ffffffffffffffffffffffffffffffffffffffff168152602001908152602001600020600082825461069f9190611930565b925050819055508173ffffffffffffffffffffffffffffffffffffffff167fd327b35e36b3981157588978d60961f5c09dc2926008abb81dd77b1197a416ed826040516106ec91906117f0565b60405180910390a25050565b60008060008373ffffffffffffffffffffffffffffffffffffffff1673ffffffffffffffffffffffffffffffffffffffff168152602001908152602001600020549050919050565b610748610c7a565b73ffffffffffffffffffffffffffffffffffffffff166107666107c8565b73ffffffffffffffffffffffffffffffffffffffff16146107bc576040517f08c379a00000000000000000000000000000000000000000000000000000000081526004016107b39061183e565b60405180910390fd5b6107c660006112a4565b565b6000600560009054906101000a900473ffffffffffffffffffffffffffffffffffffffff16905090565b60606004805461080190611a42565b80601f016020809104026020016040519081016040528092919081815260200182805461082d90611a42565b801561087a5780601f1061084f5761010080835404028352916020019161087a565b820191906000526020600020905b81548152906001019060200180831161085d57829003601f168201915b5050505050905090565b60008061088f610c7a565b90506000600160008373ffffffffffffffffffffffffffffffffffffffff1673ffffffffffffffffffffffffffffffffffffffff16815260200190815260200160002060008673ffffffffffffffffffffffffffffffffffffffff1673ffffffffffffffffffffffffffffffffffffffff16815260200190815260200160002054905083811015610955576040517f08c379a000000000000000000000000000000000000000000000000000000000815260040161094c9061189e565b60405180910390fd5b6109628286868403610c82565b60019250505092915050565b600080610979610c7a565b9050610986818585610ed9565b600191505092915050565b6000600160008473ffffffffffffffffffffffffffffffffffffffff1673ffffffffffffffffffffffffffffffffffffffff16815260200190815260200160002060008373ffffffffffffffffffffffffffffffffffffffff1673ffffffffffffffffffffffffffffffffffffffff16815260200190815260200160002054905092915050565b610a20610c7a565b73ffffffffffffffffffffffffffffffffffffffff16610a3e6107c8565b73ffffffffffffffffffffffffffffffffffffffff1614610a94576040517f08c379a0000000000000000000000000000000000000000000000000000000008152600401610a8b9061183e565b60405180910390fd5b600073ffffffffffffffffffffffffffffffffffffffff168173ffffffffffffffffffffffffffffffffffffffff161415610b04576040517f08c379a0000000000000000000000000000000000000000000000000000000008152600401610afb90611770565b60405180910390fd5b610b0d816112a4565b50565b8173ffffffffffffffffffffffffffffffffffffffff163373ffffffffffffffffffffffffffffffffffffffff1614610b7e576040517f08c379a0000000000000000000000000000000000000000000000000000000008152600401610b759061181e565b60405180910390fd5b610b89308383610ed9565b80600660008473ffffffffffffffffffffffffffffffffffffffff1673ffffffffffffffffffffffffffffffffffffffff1681526020019081526020016000206000828254610bd89190611986565b925050819055508173ffffffffffffffffffffffffffffffffffffffff167f7a5e5c901f9da945e2028bd646eb1f6842dff416e862cfa502e0d3408635143a82604051610c259190611742565b60405180910390a25050565b6000600660008373ffffffffffffffffffffffffffffffffffffffff1673ffffffffffffffffffffffffffffffffffffffff168152602001908152602001600020549050919050565b600033905090565b600073ffffffffffffffffffffffffffffffffffffffff168373ffffffffffffffffffffffffffffffffffffffff161415610cf2576040517f08c379a0000000000000000000000000000000000000000000000000000000008152600401610ce99061187e565b60405180910390fd5b600073ffffffffffffffffffffffffffffffffffffffff168273ffffffffffffffffffffffffffffffffffffffff161415610d62576040517f08c379a0000000000000000000000000000000000000000000000000000000008152600401610d5990611790565b60405180910390fd5b80600160008573ffffffffffffffffffffffffffffffffffffffff1673ffffffffffffffffffffffffffffffffffffffff16815260200190815260200160002060008473ffffffffffffffffffffffffffffffffffffffff1673ffffffffffffffffffffffffffffffffffffffff168152602001908152602001600020819055508173ffffffffffffffffffffffffffffffffffffffff168373ffffffffffffffffffffffffffffffffffffffff167f8c5be1e5ebec7d5bd14f71427d1e84f3dd0314c0f7b2291e5b200ac8c7c3b92583604051610e4091906118de565b60405180910390a3505050565b6000610e598484610991565b90507fffffffffffffffffffffffffffffffffffffffffffffffffffffffffffffffff8114610ed35781811015610ec5576040517f08c379a0000000000000000000000000000000000000000000000000000000008152600401610ebc906117b0565b60405180910390fd5b610ed28484848403610c82565b5b50505050565b600073ffffffffffffffffffffffffffffffffffffffff168373ffffffffffffffffffffffffffffffffffffffff161415610f49576040517f08c379a0000000000000000000000000000000000000000000000000000000008152600401610f409061185e565b60405180910390fd5b600073ffffffffffffffffffffffffffffffffffffffff168273ffffffffffffffffffffffffffffffffffffffff161415610fb9576040517f08c379a0000000000000000000000000000000000000000000000000000000008152600401610fb090611722565b60405180910390fd5b60008060008573ffffffffffffffffffffffffffffffffffffffff1673ffffffffffffffffffffffffffffffffffffffff1681526020019081526020016000205490508181101561103f576040517f08c379a0000000000000000000000000000000000000000000000000000000008152600401611036906117d0565b60405180910390fd5b8181036000808673ffffffffffffffffffffffffffffffffffffffff1673ffffffffffffffffffffffffffffffffffffffff16815260200190815260200160002081905550816000808573ffffffffffffffffffffffffffffffffffffffff1673ffffffffffffffffffffffffffffffffffffffff16815260200190815260200160002060008282546110d29190611930565b925050819055508273ffffffffffffffffffffffffffffffffffffffff168473ffffffffffffffffffffffffffffffffffffffff167fddf252ad1be2c89b69c2b068fc378daa952ba7f163c4a11628f55a4df523b3ef8460405161113691906118de565b60405180910390a350505050565b600073ffffffffffffffffffffffffffffffffffffffff168273ffffffffffffffffffffffffffffffffffffffff1614156111b4576040517f08c379a00000000000000000000000000000000000000000000000000000000081526004016111ab906118be565b60405180910390fd5b6111c06000838361136a565b80600260008282546111d29190611930565b92505081905550806000808473ffffffffffffffffffffffffffffffffffffffff1673ffffffffffffffffffffffffffffffffffffffff16815260200190815260200160002060008282546112279190611930565b925050819055508173ffffffffffffffffffffffffffffffffffffffff16600073ffffffffffffffffffffffffffffffffffffffff167fddf252ad1be2c89b69c2b068fc378daa952ba7f163c4a11628f55a4df523b3ef8360405161128c91906118de565b60405180910390a36112a06000838361136f565b5050565b6000600560009054906101000a900473ffffffffffffffffffffffffffffffffffffffff16905081600560006101000a81548173ffffffffffffffffffffffffffffffffffffffff021916908373ffffffffffffffffffffffffffffffffffffffff1602179055508173ffffffffffffffffffffffffffffffffffffffff168173ffffffffffffffffffffffffffffffffffffffff167f8be0079c531659141344cd1fd0a4f28419497f9722a3daafe3b4186f6b6457e060405160405180910390a35050565b505050565b505050565b60008135905061138381611e02565b92915050565b60008135905061139881611e19565b92915050565b6000602082840312156113b057600080fd5b60006113be84828501611374565b91505092915050565b600080604083850312156113da57600080fd5b60006113e885828601611374565b92505060206113f985828601611374565b9150509250929050565b60008060006060848603121561141857600080fd5b600061142686828701611374565b935050602061143786828701611374565b925050604061144886828701611389565b9150509250925092565b6000806040838503121561146557600080fd5b600061147385828601611374565b925050602061148485828601611389565b9150509250929050565b611497816119ba565b82525050565b6114a6816119cc565b82525050565b60006114b782611914565b6114c1818561191f565b93506114d1818560208601611a0f565b6114da81611ad2565b840191505092915050565b60006114f260238361191f565b91506114fd82611ae3565b604082019050919050565b600061151560098361191f565b915061152082611b32565b602082019050919050565b600061153860268361191f565b915061154382611b5b565b604082019050919050565b600061155b60228361191f565b915061156682611baa565b604082019050919050565b600061157e601d8361191f565b915061158982611bf9565b602082019050919050565b60006115a160268361191f565b91506115ac82611c22565b604082019050919050565b60006115c460088361191f565b91506115cf82611c71565b602082019050919050565b60006115e760088361191f565b91506115f282611c9a565b602082019050919050565b600061160a60208361191f565b915061161582611cc3565b602082019050919050565b600061162d60258361191f565b915061163882611cec565b604082019050919050565b600061165060248361191f565b915061165b82611d3b565b604082019050919050565b600061167360258361191f565b915061167e82611d8a565b604082019050919050565b6000611696601f8361191f565b91506116a182611dd9565b602082019050919050565b6116b5816119f8565b82525050565b6116c481611a02565b82525050565b60006020820190506116df600083018461148e565b92915050565b60006020820190506116fa600083018461149d565b92915050565b6000602082019050818103600083015261171a81846114ac565b905092915050565b6000602082019050818103600083015261173b816114e5565b9050919050565b6000604082019050818103600083015261175b81611508565b905061176a60208301846116ac565b92915050565b600060208201905081810360008301526117898161152b565b9050919050565b600060208201905081810360008301526117a98161154e565b9050919050565b600060208201905081810360008301526117c981611571565b9050919050565b600060208201905081810360008301526117e981611594565b9050919050565b60006040820190508181036000830152611809816115b7565b905061181860208301846116ac565b92915050565b60006020820190508181036000830152611837816115da565b9050919050565b60006020820190508181036000830152611857816115fd565b9050919050565b6000602082019050818103600083015261187781611620565b9050919050565b6000602082019050818103600083015261189781611643565b9050919050565b600060208201905081810360008301526118b781611666565b9050919050565b600060208201905081810360008301526118d781611689565b9050919050565b60006020820190506118f360008301846116ac565b92915050565b600060208201905061190e60008301846116bb565b92915050565b600081519050919050565b600082825260208201905092915050565b600061193b826119f8565b9150611946836119f8565b9250827fffffffffffffffffffffffffffffffffffffffffffffffffffffffffffffffff0382111561197b5761197a611a74565b5b828201905092915050565b6000611991826119f8565b915061199c836119f8565b9250828210156119af576119ae611a74565b5b828203905092915050565b60006119c5826119d8565b9050919050565b60008115159050919050565b600073ffffffffffffffffffffffffffffffffffffffff82169050919050565b6000819050919050565b600060ff82169050919050565b60005b83811015611a2d578082015181840152602081019050611a12565b83811115611a3c576000848401525b50505050565b60006002820490506001821680611a5a57607f821691505b60208210811415611a6e57611a6d611aa3565b5b50919050565b7f4e487b7100000000000000000000000000000000000000000000000000000000600052601160045260246000fd5b7f4e487b7100000000000000000000000000000000000000000000000000000000600052602260045260246000fd5b6000601f19601f8301169050919050565b7f45524332303a207472616e7366657220746f20746865207a65726f206164647260008201527f6573730000000000000000000000000000000000000000000000000000000000602082015250565b7f57697468647261773a0000000000000000000000000000000000000000000000600082015250565b7f4f776e61626c653a206e6577206f776e657220697320746865207a65726f206160008201527f6464726573730000000000000000000000000000000000000000000000000000602082015250565b7f45524332303a20617070726f766520746f20746865207a65726f20616464726560008201527f7373000000000000000000000000000000000000000000000000000000000000602082015250565b7f45524332303a20696e73756666696369656e7420616c6c6f77616e6365000000600082015250565b7f45524332303a207472616e7366657220616d6f756e742065786365656473206260008201527f616c616e63650000000000000000000000000000000000000000000000000000602082015250565b7f4465706f7369743a000000000000000000000000000000000000000000000000600082015250565b7f4e6f20547269636b000000000000000000000000000000000000000000000000600082015250565b7f4f776e61626c653a2063616c6c6572206973206e6f7420746865206f776e6572600082015250565b7f45524332303a207472616e736665722066726f6d20746865207a65726f20616460008201527f6472657373000000000000000000000000000000000000000000000000000000602082015250565b7f45524332303a20617070726f76652066726f6d20746865207a65726f2061646460008201527f7265737300000000000000000000000000000000000000000000000000000000602082015250565b7f45524332303a2064656372656173656420616c6c6f77616e63652062656c6f7760008201527f207a65726f000000000000000000000000000000000000000000000000000000602082015250565b7f45524332303a206d696e7420746f20746865207a65726f206164647265737300600082015250565b611e0b816119ba565b8114611e1657600080fd5b50565b611e22816119f8565b8114611e2d57600080fd5b5056fea264697066735822122021200fcb3531472f51de7c57a63e3b7d25f494efccc91b43f70927336c3f6cd964736f6c63430008040033",
  "linkReferences": {},
  "deployedLinkReferences": {}
}